{
  "address": "0x58669592a954eF6426782FE71BceaA5649624e69",
  "abi": [
    {
      "inputs": [],
      "stateMutability": "nonpayable",
      "type": "constructor"
    },
    {
      "anonymous": false,
      "inputs": [
        {
          "indexed": true,
          "internalType": "address",
          "name": "owner",
          "type": "address"
        },
        {
          "indexed": true,
          "internalType": "address",
          "name": "spender",
          "type": "address"
        },
        {
          "indexed": false,
          "internalType": "uint256",
          "name": "value",
          "type": "uint256"
        }
      ],
      "name": "Approval",
      "type": "event"
    },
    {
      "anonymous": false,
      "inputs": [
        {
          "indexed": false,
          "internalType": "uint256",
          "name": "",
          "type": "uint256"
        }
      ],
      "name": "PricePerShareLog",
      "type": "event"
    },
    {
      "anonymous": false,
      "inputs": [
        {
          "indexed": true,
          "internalType": "address",
          "name": "from",
          "type": "address"
        },
        {
          "indexed": true,
          "internalType": "address",
          "name": "to",
          "type": "address"
        },
        {
          "indexed": false,
          "internalType": "uint256",
          "name": "value",
          "type": "uint256"
        }
      ],
      "name": "Transfer",
      "type": "event"
    },
    {
      "inputs": [],
      "name": "MAI",
      "outputs": [
        {
          "internalType": "address",
          "name": "",
          "type": "address"
        }
      ],
      "stateMutability": "view",
      "type": "function"
    },
    {
      "inputs": [],
      "name": "QI",
      "outputs": [
        {
          "internalType": "address",
          "name": "",
          "type": "address"
        }
      ],
      "stateMutability": "view",
      "type": "function"
    },
    {
      "inputs": [
        {
          "internalType": "address",
          "name": "owner",
          "type": "address"
        },
        {
          "internalType": "address",
          "name": "spender",
          "type": "address"
        }
      ],
      "name": "allowance",
      "outputs": [
        {
          "internalType": "uint256",
          "name": "",
          "type": "uint256"
        }
      ],
      "stateMutability": "view",
      "type": "function"
    },
    {
      "inputs": [
        {
          "internalType": "address",
          "name": "spender",
          "type": "address"
        },
        {
          "internalType": "uint256",
          "name": "amount",
          "type": "uint256"
        }
      ],
      "name": "approve",
      "outputs": [
        {
          "internalType": "bool",
          "name": "",
          "type": "bool"
        }
      ],
      "stateMutability": "nonpayable",
      "type": "function"
    },
    {
      "inputs": [],
      "name": "balance",
      "outputs": [
        {
          "internalType": "uint256",
          "name": "",
          "type": "uint256"
        }
      ],
      "stateMutability": "view",
      "type": "function"
    },
    {
      "inputs": [
        {
          "internalType": "address",
          "name": "account",
          "type": "address"
        }
      ],
      "name": "balanceOf",
      "outputs": [
        {
          "internalType": "uint256",
          "name": "",
          "type": "uint256"
        }
      ],
      "stateMutability": "view",
      "type": "function"
    },
    {
      "inputs": [],
      "name": "decimals",
      "outputs": [
        {
          "internalType": "uint8",
          "name": "",
          "type": "uint8"
        }
      ],
      "stateMutability": "view",
      "type": "function"
    },
    {
      "inputs": [
        {
          "internalType": "address",
          "name": "spender",
          "type": "address"
        },
        {
          "internalType": "uint256",
          "name": "subtractedValue",
          "type": "uint256"
        }
      ],
      "name": "decreaseAllowance",
      "outputs": [
        {
          "internalType": "bool",
          "name": "",
          "type": "bool"
        }
      ],
      "stateMutability": "nonpayable",
      "type": "function"
    },
    {
      "inputs": [
        {
          "internalType": "uint256",
          "name": "amountIn",
          "type": "uint256"
        }
      ],
      "name": "deposit",
      "outputs": [],
      "stateMutability": "nonpayable",
      "type": "function"
    },
    {
      "inputs": [
        {
          "internalType": "uint256",
          "name": "maiAmountIn",
          "type": "uint256"
        }
      ],
      "name": "depositWithMAI",
      "outputs": [],
      "stateMutability": "nonpayable",
      "type": "function"
    },
    {
      "inputs": [
        {
          "internalType": "uint256",
          "name": "qiAmountIn",
          "type": "uint256"
        }
      ],
      "name": "depositWithQI",
      "outputs": [],
      "stateMutability": "nonpayable",
      "type": "function"
    },
    {
      "inputs": [],
      "name": "farm",
      "outputs": [
        {
          "internalType": "contract IFarm",
          "name": "",
          "type": "address"
        }
      ],
      "stateMutability": "view",
      "type": "function"
    },
    {
      "inputs": [],
      "name": "harvest",
      "outputs": [],
      "stateMutability": "nonpayable",
      "type": "function"
    },
    {
      "inputs": [
        {
          "internalType": "address",
          "name": "spender",
          "type": "address"
        },
        {
          "internalType": "uint256",
          "name": "addedValue",
          "type": "uint256"
        }
      ],
      "name": "increaseAllowance",
      "outputs": [
        {
          "internalType": "bool",
          "name": "",
          "type": "bool"
        }
      ],
      "stateMutability": "nonpayable",
      "type": "function"
    },
    {
      "inputs": [],
      "name": "name",
      "outputs": [
        {
          "internalType": "string",
          "name": "",
          "type": "string"
        }
      ],
      "stateMutability": "view",
      "type": "function"
    },
    {
      "inputs": [],
      "name": "pendingRewards",
      "outputs": [
        {
          "internalType": "uint256",
          "name": "amount",
          "type": "uint256"
        }
      ],
      "stateMutability": "view",
      "type": "function"
    },
    {
      "inputs": [],
      "name": "pid",
      "outputs": [
        {
          "internalType": "uint256",
          "name": "",
          "type": "uint256"
        }
      ],
      "stateMutability": "view",
      "type": "function"
    },
    {
      "inputs": [],
      "name": "pricePerShare",
      "outputs": [
        {
          "internalType": "uint256",
          "name": "",
          "type": "uint256"
        }
      ],
      "stateMutability": "view",
      "type": "function"
    },
    {
      "inputs": [],
      "name": "quickswapRouter",
      "outputs": [
        {
          "internalType": "contract IUniswapV2Router02",
          "name": "",
          "type": "address"
        }
      ],
      "stateMutability": "view",
      "type": "function"
    },
    {
      "inputs": [],
      "name": "symbol",
      "outputs": [
        {
          "internalType": "string",
          "name": "",
          "type": "string"
        }
      ],
      "stateMutability": "view",
      "type": "function"
    },
    {
      "inputs": [],
      "name": "totalSupply",
      "outputs": [
        {
          "internalType": "uint256",
          "name": "",
          "type": "uint256"
        }
      ],
      "stateMutability": "view",
      "type": "function"
    },
    {
      "inputs": [
        {
          "internalType": "address",
          "name": "recipient",
          "type": "address"
        },
        {
          "internalType": "uint256",
          "name": "amount",
          "type": "uint256"
        }
      ],
      "name": "transfer",
      "outputs": [
        {
          "internalType": "bool",
          "name": "",
          "type": "bool"
        }
      ],
      "stateMutability": "nonpayable",
      "type": "function"
    },
    {
      "inputs": [
        {
          "internalType": "address",
          "name": "sender",
          "type": "address"
        },
        {
          "internalType": "address",
          "name": "recipient",
          "type": "address"
        },
        {
          "internalType": "uint256",
          "name": "amount",
          "type": "uint256"
        }
      ],
      "name": "transferFrom",
      "outputs": [
        {
          "internalType": "bool",
          "name": "",
          "type": "bool"
        }
      ],
      "stateMutability": "nonpayable",
      "type": "function"
    },
    {
      "inputs": [],
      "name": "underlying",
      "outputs": [
        {
          "internalType": "contract IERC20",
          "name": "",
          "type": "address"
        }
      ],
      "stateMutability": "view",
      "type": "function"
    },
    {
      "inputs": [
        {
          "internalType": "uint256",
          "name": "shares",
          "type": "uint256"
        }
      ],
      "name": "withdraw",
      "outputs": [],
      "stateMutability": "nonpayable",
      "type": "function"
    }
  ],
  "transactionHash": "0x3feaa1e888c23ba41653eb2688c0dd22188019898f184e2c360ac8f8c18fa5f5",
  "args": [],
  "solcInputHash": "0668b694486db2948066f10c3a0d5b49",
  "bytecode": "0x60806040523480156200001157600080fd5b50604080518082018252601581527f466f726365204d41492f51492053747261746567790000000000000000000000602080830191825283518085019094526008845267465f4d41492f514960c01b908401528151919291620000779160039162000096565b5080516200008d90600490602084019062000096565b50505062000179565b828054620000a4906200013c565b90600052602060002090601f016020900481019282620000c8576000855562000113565b82601f10620000e357805160ff191683800117855562000113565b8280016001018555821562000113579182015b8281111562000113578251825591602001919060010190620000f6565b506200012192915062000125565b5090565b5b8082111562000121576000815560010162000126565b600181811c908216806200015157607f821691505b602082108114156200017357634e487b7160e01b600052602260045260246000fd5b50919050565b61259480620001896000396000f3fe608060405234801561001057600080fd5b50600436106101735760003560e01c806370a08231116100de578063b69ef8a811610097578063dd62ed3e11610071578063dd62ed3e14610337578063e4abe00914610370578063eded3fda14610383578063f10684541461038b57600080fd5b8063b69ef8a814610309578063b6b55f2514610311578063d72399f41461032457600080fd5b806370a08231146102955780638d87c4eb146102be57806395d89b41146102d357806399530b06146102db578063a457c2d7146102e3578063a9059cbb146102f657600080fd5b8063313ce56711610130578063313ce5671461022057806336e9332d1461022f578063395093511461024a5780634641257d1461025d5780635f22f53f146102655780636f307dc31461027a57600080fd5b806306fdde0314610178578063095ea7b31461019657806318160ddd146101b957806318636ada146101cb57806323b872dd146101f85780632e1a7d4d1461020b575b600080fd5b610180610393565b60405161018d9190612347565b60405180910390f35b6101a96101a4366004612121565b610425565b604051901515815260200161018d565b6002545b60405190815260200161018d565b6101e060008051602061253f83398151915281565b6040516001600160a01b03909116815260200161018d565b6101a96102063660046120e5565b61043b565b61021e610219366004612282565b6104ec565b005b6040516012815260200161018d565b6101e073574fe4e8120c4da1741b5fd45584de7a5b521f0f81565b6101a9610258366004612121565b6105ba565b61021e6105f6565b6101e06000805160206124ff83398151915281565b6101e0737afcf11f3e2f01e71b7cc6b8b5e707e42e6ea39781565b6101bd6102a3366004612097565b6001600160a01b031660009081526020819052604090205490565b6101e060008051602061251f83398151915281565b610180610b71565b6101bd610b80565b6101a96102f1366004612121565b610bc1565b6101a9610304366004612121565b610c5a565b6101bd610c67565b61021e61031f366004612282565b610cf4565b61021e610332366004612282565b610d0c565b6101bd6103453660046120b2565b6001600160a01b03918216600090815260016020908152604080832093909416825291909152205490565b61021e61037e366004612282565b611126565b6101bd6114cd565b6101bd600281565b6060600380546103a290612487565b80601f01602080910402602001604051908101604052809291908181526020018280546103ce90612487565b801561041b5780601f106103f05761010080835404028352916020019161041b565b820191906000526020600020905b8154815290600101906020018083116103fe57829003601f168201915b5050505050905090565b600061043233848461150e565b50600192915050565b6000610448848484611633565b6001600160a01b0384166000908152600160209081526040808320338452909152902054828110156104d25760405162461bcd60e51b815260206004820152602860248201527f45524332303a207472616e7366657220616d6f756e74206578636565647320616044820152676c6c6f77616e636560c01b60648201526084015b60405180910390fd5b6104df853385840361150e565b60019150505b9392505050565b6104f4611803565b60006104ff60025490565b82610508610c67565b6105129190612425565b61051c9190612403565b9050610528338361183f565b604051630441a3e760e41b8152600260048201526024810182905273574fe4e8120c4da1741b5fd45584de7a5b521f0f9063441a3e7090604401600060405180830381600087803b15801561057c57600080fd5b505af1158015610590573d6000803e3d6000fd5b506105b69250737afcf11f3e2f01e71b7cc6b8b5e707e42e6ea39791503390508361198a565b5050565b3360008181526001602090815260408083206001600160a01b038716845290915281205490916104329185906105f19086906123eb565b61150e565b604051631c57762b60e31b8152600260048201526000602482015273574fe4e8120c4da1741b5fd45584de7a5b521f0f9063e2bbb15890604401600060405180830381600087803b15801561064a57600080fd5b505af115801561065e573d6000803e3d6000fd5b50506040516370a0823160e01b8152306004820152600092506000805160206124ff83398151915291506370a082319060240160206040518083038186803b1580156106a957600080fd5b505afa1580156106bd573d6000803e3d6000fd5b505050506040513d601f19601f820116820180604052508101906106e1919061229b565b90506000737afcf11f3e2f01e71b7cc6b8b5e707e42e6ea3976001600160a01b0316630902f1ac6040518163ffffffff1660e01b815260040160606040518083038186803b15801561073257600080fd5b505afa158015610746573d6000803e3d6000fd5b505050506040513d601f19601f8201168201806040525081019061076a9190612232565b50506001600160701b03169050600061078382846119ed565b60408051600280825260608201835292935060009290916020830190803683370190505090506000805160206124ff833981519152816000815181106107cb576107cb6124d2565b60200260200101906001600160a01b031690816001600160a01b03168152505060008051602061253f8339815191528160018151811061080d5761080d6124d2565b6001600160a01b039092166020928302919091019091015261084d6000805160206124ff83398151915260008051602061251f8339815191526000611a48565b6108746000805160206124ff83398151915260008051602061251f83398151915286611a48565b6040516338ed173960e01b815260009060008051602061251f833981519152906338ed1739906108b190869060019087903090429060040161237a565b600060405180830381600087803b1580156108cb57600080fd5b505af11580156108df573d6000803e3d6000fd5b505050506040513d6000823e601f3d908101601f19168201604052610907919081019061214b565b600183516109159190612444565b81518110610925576109256124d2565b6020908102919091010151905061095a60008051602061253f83398151915260008051602061251f8339815191526000611a48565b61098160008051602061253f83398151915260008051602061251f83398151915283611a48565b60008051602061251f83398151915263e8e337006000805160206124ff83398151915260008051602061253f8339815191526109bd878a612444565b8560018030426040518963ffffffff1660e01b81526004016109e69897969594939291906122fe565b606060405180830381600087803b158015610a0057600080fd5b505af1158015610a14573d6000803e3d6000fd5b505050506040513d601f19601f82011682018060405250810190610a3891906122b4565b50506040516370a0823160e01b815230600482015260009150737afcf11f3e2f01e71b7cc6b8b5e707e42e6ea397906370a082319060240160206040518083038186803b158015610a8857600080fd5b505afa158015610a9c573d6000803e3d6000fd5b505050506040513d601f19601f82011682018060405250810190610ac0919061229b565b9050610af5737afcf11f3e2f01e71b7cc6b8b5e707e42e6ea39773574fe4e8120c4da1741b5fd45584de7a5b521f0f83611a48565b604051631c57762b60e31b8152600260048201526024810182905273574fe4e8120c4da1741b5fd45584de7a5b521f0f9063e2bbb15890604401600060405180830381600087803b158015610b4957600080fd5b505af1158015610b5d573d6000803e3d6000fd5b50505050610b69611803565b505050505050565b6060600480546103a290612487565b6000610b8b60025490565b610b955750600090565b600254610ba0610c67565b610bb290670de0b6b3a7640000612425565b610bbc9190612403565b905090565b3360009081526001602090815260408083206001600160a01b038616845290915281205482811015610c435760405162461bcd60e51b815260206004820152602560248201527f45524332303a2064656372656173656420616c6c6f77616e63652062656c6f77604482015264207a65726f60d81b60648201526084016104c9565b610c50338585840361150e565b5060019392505050565b6000610432338484611633565b60405163511c188360e11b81526002600482015230602482015260009073574fe4e8120c4da1741b5fd45584de7a5b521f0f9063a2383106906044015b60206040518083038186803b158015610cbc57600080fd5b505afa158015610cd0573d6000803e3d6000fd5b505050506040513d601f19601f82011682018060405250810190610bbc919061229b565b6000610cfe610c67565b90506105b681836001611b6c565b6000610d16610c67565b9050610d326000805160206124ff833981519152333085611c98565b6000737afcf11f3e2f01e71b7cc6b8b5e707e42e6ea3976001600160a01b0316630902f1ac6040518163ffffffff1660e01b815260040160606040518083038186803b158015610d8157600080fd5b505afa158015610d95573d6000803e3d6000fd5b505050506040513d601f19601f82011682018060405250810190610db99190612232565b50506001600160701b031690506000610dd282856119ed565b60408051600280825260608201835292935060009290916020830190803683370190505090506000805160206124ff83398151915281600081518110610e1a57610e1a6124d2565b60200260200101906001600160a01b031690816001600160a01b03168152505060008051602061253f83398151915281600181518110610e5c57610e5c6124d2565b6001600160a01b0390921660209283029190910190910152610e9c6000805160206124ff83398151915260008051602061251f8339815191526000611a48565b610ec36000805160206124ff83398151915260008051602061251f83398151915287611a48565b6040516338ed173960e01b815260009060008051602061251f833981519152906338ed173990610f0090869060019087903090429060040161237a565b600060405180830381600087803b158015610f1a57600080fd5b505af1158015610f2e573d6000803e3d6000fd5b505050506040513d6000823e601f3d908101601f19168201604052610f56919081019061214b565b60018351610f649190612444565b81518110610f7457610f746124d2565b60209081029190910101519050610fa960008051602061253f83398151915260008051602061251f8339815191526000611a48565b610fd060008051602061253f83398151915260008051602061251f83398151915283611a48565b60008051602061251f83398151915263e8e337006000805160206124ff83398151915260008051602061253f83398151915261100c878b612444565b8560018030426040518963ffffffff1660e01b81526004016110359897969594939291906122fe565b606060405180830381600087803b15801561104f57600080fd5b505af1158015611063573d6000803e3d6000fd5b505050506040513d601f19601f8201168201806040525081019061108791906122b4565b50506040516370a0823160e01b815230600482015260009150737afcf11f3e2f01e71b7cc6b8b5e707e42e6ea397906370a082319060240160206040518083038186803b1580156110d757600080fd5b505afa1580156110eb573d6000803e3d6000fd5b505050506040513d601f19601f8201168201806040525081019061110f919061229b565b905061111d86826000611b6c565b50505050505050565b6000611130610c67565b905061114c60008051602061253f833981519152333085611c98565b6040516370a0823160e01b815230600482015260008051602061253f833981519152906370a082319060240160206040518083038186803b15801561119057600080fd5b505afa1580156111a4573d6000803e3d6000fd5b505050506040513d601f19601f820116820180604052508101906111c8919061229b565b91506000737afcf11f3e2f01e71b7cc6b8b5e707e42e6ea3976001600160a01b0316630902f1ac6040518163ffffffff1660e01b815260040160606040518083038186803b15801561121957600080fd5b505afa15801561122d573d6000803e3d6000fd5b505050506040513d601f19601f820116820180604052508101906112519190612232565b506001600160701b0316915050600061126a82856119ed565b604080516002808252606082018352929350600092909160208301908036833701905050905060008051602061253f833981519152816000815181106112b2576112b26124d2565b60200260200101906001600160a01b031690816001600160a01b0316815250506000805160206124ff833981519152816001815181106112f4576112f46124d2565b6001600160a01b039092166020928302919091019091015261133460008051602061253f83398151915260008051602061251f8339815191526000611a48565b61135b60008051602061253f83398151915260008051602061251f83398151915287611a48565b6040516338ed173960e01b815260009060008051602061251f833981519152906338ed17399061139890869060019087903090429060040161237a565b600060405180830381600087803b1580156113b257600080fd5b505af11580156113c6573d6000803e3d6000fd5b505050506040513d6000823e601f3d908101601f191682016040526113ee919081019061214b565b600183516113fc9190612444565b8151811061140c5761140c6124d2565b602090810291909101015190506114416000805160206124ff83398151915260008051602061251f8339815191526000611a48565b6114686000805160206124ff83398151915260008051602061251f83398151915283611a48565b60008051602061251f83398151915263e8e337006000805160206124ff83398151915260008051602061253f833981519152846114a5888c612444565b60018030426040518963ffffffff1660e01b81526004016110359897969594939291906122fe565b60405163e4c75c2760e01b81526002600482015230602482015260009073574fe4e8120c4da1741b5fd45584de7a5b521f0f9063e4c75c2790604401610ca4565b6001600160a01b0383166115705760405162461bcd60e51b8152602060048201526024808201527f45524332303a20617070726f76652066726f6d20746865207a65726f206164646044820152637265737360e01b60648201526084016104c9565b6001600160a01b0382166115d15760405162461bcd60e51b815260206004820152602260248201527f45524332303a20617070726f766520746f20746865207a65726f206164647265604482015261737360f01b60648201526084016104c9565b6001600160a01b0383811660008181526001602090815260408083209487168084529482529182902085905590518481527f8c5be1e5ebec7d5bd14f71427d1e84f3dd0314c0f7b2291e5b200ac8c7c3b92591015b60405180910390a3505050565b6001600160a01b0383166116975760405162461bcd60e51b815260206004820152602560248201527f45524332303a207472616e736665722066726f6d20746865207a65726f206164604482015264647265737360d81b60648201526084016104c9565b6001600160a01b0382166116f95760405162461bcd60e51b815260206004820152602360248201527f45524332303a207472616e7366657220746f20746865207a65726f206164647260448201526265737360e81b60648201526084016104c9565b6001600160a01b038316600090815260208190526040902054818110156117715760405162461bcd60e51b815260206004820152602660248201527f45524332303a207472616e7366657220616d6f756e7420657863656564732062604482015265616c616e636560d01b60648201526084016104c9565b6001600160a01b038085166000908152602081905260408082208585039055918516815290812080548492906117a89084906123eb565b92505081905550826001600160a01b0316846001600160a01b03167fddf252ad1be2c89b69c2b068fc378daa952ba7f163c4a11628f55a4df523b3ef846040516117f491815260200190565b60405180910390a35b50505050565b7fb41604af38b104ac354076cd26f5aea851a324ccb70a569d31fa4ea72f7876b361182c610b80565b60405190815260200160405180910390a1565b6001600160a01b03821661189f5760405162461bcd60e51b815260206004820152602160248201527f45524332303a206275726e2066726f6d20746865207a65726f206164647265736044820152607360f81b60648201526084016104c9565b6001600160a01b038216600090815260208190526040902054818110156119135760405162461bcd60e51b815260206004820152602260248201527f45524332303a206275726e20616d6f756e7420657863656564732062616c616e604482015261636560f01b60648201526084016104c9565b6001600160a01b0383166000908152602081905260408120838303905560028054849290611942908490612444565b90915550506040518281526000906001600160a01b038516907fddf252ad1be2c89b69c2b068fc378daa952ba7f163c4a11628f55a4df523b3ef90602001611626565b505050565b6040516001600160a01b03831660248201526044810182905261198590849063a9059cbb60e01b906064015b60408051601f198184030181529190526020810180516001600160e01b03166001600160e01b031990931692909217909152611cd0565b60006107ca6119fe846107cd612425565b611a34611a0e86623cda29612425565b611a1b86623cda20612425565b611a2591906123eb565b611a2f9087612425565b611da2565b611a3e9190612444565b6104e59190612403565b801580611ad15750604051636eb1769f60e11b81523060048201526001600160a01b03838116602483015284169063dd62ed3e9060440160206040518083038186803b158015611a9757600080fd5b505afa158015611aab573d6000803e3d6000fd5b505050506040513d601f19601f82011682018060405250810190611acf919061229b565b155b611b3c5760405162461bcd60e51b815260206004820152603660248201527f5361666545524332303a20617070726f76652066726f6d206e6f6e2d7a65726f60448201527520746f206e6f6e2d7a65726f20616c6c6f77616e636560501b60648201526084016104c9565b6040516001600160a01b03831660248201526044810182905261198590849063095ea7b360e01b906064016119b6565b8015611b9257611b92737afcf11f3e2f01e71b7cc6b8b5e707e42e6ea397333085611c98565b611bc5737afcf11f3e2f01e71b7cc6b8b5e707e42e6ea39773574fe4e8120c4da1741b5fd45584de7a5b521f0f84611a48565b604051631c57762b60e31b8152600260048201526024810183905273574fe4e8120c4da1741b5fd45584de7a5b521f0f9063e2bbb15890604401600060405180830381600087803b158015611c1957600080fd5b505af1158015611c2d573d6000803e3d6000fd5b50505050600083611c3c610c67565b611c469190612444565b90506000611c5360025490565b611c5e575080611c7f565b84611c6860025490565b611c729084612425565b611c7c9190612403565b90505b611c893382611e12565b611c91611803565b5050505050565b6040516001600160a01b03808516602483015283166044820152606481018290526117fd9085906323b872dd60e01b906084016119b6565b6000611d25826040518060400160405280602081526020017f5361666545524332303a206c6f772d6c6576656c2063616c6c206661696c6564815250856001600160a01b0316611ef19092919063ffffffff16565b8051909150156119855780806020019051810190611d439190612210565b6119855760405162461bcd60e51b815260206004820152602a60248201527f5361666545524332303a204552433230206f7065726174696f6e20646964206e6044820152691bdd081cdd58d8d9595960b21b60648201526084016104c9565b60006003821115611e035750806000611dbc600283612403565b611dc79060016123eb565b90505b81811015611dfd57905080600281611de28186612403565b611dec91906123eb565b611df69190612403565b9050611dca565b50919050565b8115611e0d575060015b919050565b6001600160a01b038216611e685760405162461bcd60e51b815260206004820152601f60248201527f45524332303a206d696e7420746f20746865207a65726f20616464726573730060448201526064016104c9565b8060026000828254611e7a91906123eb565b90915550506001600160a01b03821660009081526020819052604081208054839290611ea79084906123eb565b90915550506040518181526001600160a01b038316906000907fddf252ad1be2c89b69c2b068fc378daa952ba7f163c4a11628f55a4df523b3ef9060200160405180910390a35050565b6060611f008484600085611f08565b949350505050565b606082471015611f695760405162461bcd60e51b815260206004820152602660248201527f416464726573733a20696e73756666696369656e742062616c616e636520666f6044820152651c8818d85b1b60d21b60648201526084016104c9565b843b611fb75760405162461bcd60e51b815260206004820152601d60248201527f416464726573733a2063616c6c20746f206e6f6e2d636f6e747261637400000060448201526064016104c9565b600080866001600160a01b03168587604051611fd391906122e2565b60006040518083038185875af1925050503d8060008114612010576040519150601f19603f3d011682016040523d82523d6000602084013e612015565b606091505b5091509150612025828286612030565b979650505050505050565b6060831561203f5750816104e5565b82511561204f5782518084602001fd5b8160405162461bcd60e51b81526004016104c99190612347565b80356001600160a01b0381168114611e0d57600080fd5b80516001600160701b0381168114611e0d57600080fd5b6000602082840312156120a957600080fd5b6104e582612069565b600080604083850312156120c557600080fd5b6120ce83612069565b91506120dc60208401612069565b90509250929050565b6000806000606084860312156120fa57600080fd5b61210384612069565b925061211160208501612069565b9150604084013590509250925092565b6000806040838503121561213457600080fd5b61213d83612069565b946020939093013593505050565b6000602080838503121561215e57600080fd5b825167ffffffffffffffff8082111561217657600080fd5b818501915085601f83011261218a57600080fd5b81518181111561219c5761219c6124e8565b8060051b604051601f19603f830116810181811085821117156121c1576121c16124e8565b604052828152858101935084860182860187018a10156121e057600080fd5b600095505b838610156122035780518552600195909501949386019386016121e5565b5098975050505050505050565b60006020828403121561222257600080fd5b815180151581146104e557600080fd5b60008060006060848603121561224757600080fd5b61225084612080565b925061225e60208501612080565b9150604084015163ffffffff8116811461227757600080fd5b809150509250925092565b60006020828403121561229457600080fd5b5035919050565b6000602082840312156122ad57600080fd5b5051919050565b6000806000606084860312156122c957600080fd5b8351925060208401519150604084015190509250925092565b600082516122f481846020870161245b565b9190910192915050565b6001600160a01b039889168152968816602088015260408701959095526060860193909352608085019190915260a084015290921660c082015260e08101919091526101000190565b602081526000825180602084015261236681604085016020870161245b565b601f01601f19169190910160400192915050565b600060a082018783526020878185015260a0604085015281875180845260c086019150828901935060005b818110156123ca5784516001600160a01b0316835293830193918301916001016123a5565b50506001600160a01b03969096166060850152505050608001529392505050565b600082198211156123fe576123fe6124bc565b500190565b60008261242057634e487b7160e01b600052601260045260246000fd5b500490565b600081600019048311821515161561243f5761243f6124bc565b500290565b600082821015612456576124566124bc565b500390565b60005b8381101561247657818101518382015260200161245e565b838111156117fd5750506000910152565b600181811c9082168061249b57607f821691505b60208210811415611dfd57634e487b7160e01b600052602260045260246000fd5b634e487b7160e01b600052601160045260246000fd5b634e487b7160e01b600052603260045260246000fd5b634e487b7160e01b600052604160045260246000fdfe000000000000000000000000580a84c73811e1839f75d86d75d88cca0c241ff4000000000000000000000000a5e0829caced8ffdd4de3c43696c57f7d7a678ff000000000000000000000000a3fa99a148fa48d14ed51d610c367c61876997f1a26469706673582212200425ccccf6fec139beb9d84ff38c6d8de1de49c76bc1cae4287d2642c46582b764736f6c63430008060033",
  "devdoc": {
    "kind": "dev",
    "methods": {
      "allowance(address,address)": {
        "details": "See {IERC20-allowance}."
      },
      "approve(address,uint256)": {
        "details": "See {IERC20-approve}. Requirements: - `spender` cannot be the zero address."
      },
      "balanceOf(address)": {
        "details": "See {IERC20-balanceOf}."
      },
      "decimals()": {
        "details": "Returns the number of decimals used to get its user representation. For example, if `decimals` equals `2`, a balance of `505` tokens should be displayed to a user as `5,05` (`505 / 10 ** 2`). Tokens usually opt for a value of 18, imitating the relationship between Ether and Wei. This is the value {ERC20} uses, unless this function is overridden; NOTE: This information is only used for _display_ purposes: it in no way affects any of the arithmetic of the contract, including {IERC20-balanceOf} and {IERC20-transfer}."
      },
      "decreaseAllowance(address,uint256)": {
        "details": "Atomically decreases the allowance granted to `spender` by the caller. This is an alternative to {approve} that can be used as a mitigation for problems described in {IERC20-approve}. Emits an {Approval} event indicating the updated allowance. Requirements: - `spender` cannot be the zero address. - `spender` must have allowance for the caller of at least `subtractedValue`."
      },
      "increaseAllowance(address,uint256)": {
        "details": "Atomically increases the allowance granted to `spender` by the caller. This is an alternative to {approve} that can be used as a mitigation for problems described in {IERC20-approve}. Emits an {Approval} event indicating the updated allowance. Requirements: - `spender` cannot be the zero address."
      },
      "name()": {
        "details": "Returns the name of the token."
      },
      "symbol()": {
        "details": "Returns the symbol of the token, usually a shorter version of the name."
      },
      "totalSupply()": {
        "details": "See {IERC20-totalSupply}."
      },
      "transfer(address,uint256)": {
        "details": "See {IERC20-transfer}. Requirements: - `recipient` cannot be the zero address. - the caller must have a balance of at least `amount`."
      },
      "transferFrom(address,address,uint256)": {
        "details": "See {IERC20-transferFrom}. Emits an {Approval} event indicating the updated allowance. This is not required by the EIP. See the note at the beginning of {ERC20}. Requirements: - `sender` and `recipient` cannot be the zero address. - `sender` must have a balance of at least `amount`. - the caller must have allowance for ``sender``'s tokens of at least `amount`."
      }
    },
    "version": 1
  },
  "userdoc": {
    "kind": "user",
    "methods": {},
    "version": 1
  },
  "storageLayout": {
    "storage": [
      {
        "astId": 15,
        "contract": "contracts/ForceDAO_QIStrat.sol:ForceDAO_QIStrat",
        "label": "_balances",
        "offset": 0,
        "slot": "0",
        "type": "t_mapping(t_address,t_uint256)"
      },
      {
        "astId": 21,
        "contract": "contracts/ForceDAO_QIStrat.sol:ForceDAO_QIStrat",
        "label": "_allowances",
        "offset": 0,
        "slot": "1",
        "type": "t_mapping(t_address,t_mapping(t_address,t_uint256))"
      },
      {
        "astId": 23,
        "contract": "contracts/ForceDAO_QIStrat.sol:ForceDAO_QIStrat",
        "label": "_totalSupply",
        "offset": 0,
        "slot": "2",
        "type": "t_uint256"
      },
      {
        "astId": 25,
        "contract": "contracts/ForceDAO_QIStrat.sol:ForceDAO_QIStrat",
        "label": "_name",
        "offset": 0,
        "slot": "3",
        "type": "t_string_storage"
      },
      {
        "astId": 27,
        "contract": "contracts/ForceDAO_QIStrat.sol:ForceDAO_QIStrat",
        "label": "_symbol",
        "offset": 0,
        "slot": "4",
        "type": "t_string_storage"
      }
    ],
    "types": {
      "t_address": {
        "encoding": "inplace",
        "label": "address",
        "numberOfBytes": "20"
      },
      "t_mapping(t_address,t_mapping(t_address,t_uint256))": {
        "encoding": "mapping",
        "key": "t_address",
        "label": "mapping(address => mapping(address => uint256))",
        "numberOfBytes": "32",
        "value": "t_mapping(t_address,t_uint256)"
      },
      "t_mapping(t_address,t_uint256)": {
        "encoding": "mapping",
        "key": "t_address",
        "label": "mapping(address => uint256)",
        "numberOfBytes": "32",
        "value": "t_uint256"
      },
      "t_string_storage": {
        "encoding": "bytes",
        "label": "string",
        "numberOfBytes": "32"
      },
      "t_uint256": {
        "encoding": "inplace",
        "label": "uint256",
        "numberOfBytes": "32"
      }
    }
  }
}